{
  "_format": "hh-sol-artifact-1",
  "contractName": "VoteKaro",
  "sourceName": "contracts/VoteKaro.sol",
  "abi": [
    {
      "inputs": [],
      "stateMutability": "nonpayable",
      "type": "constructor"
    },
    {
      "anonymous": false,
      "inputs": [
        {
          "indexed": true,
          "internalType": "address",
          "name": "owner",
          "type": "address"
        },
        {
          "indexed": true,
          "internalType": "address",
          "name": "spender",
          "type": "address"
        },
        {
          "indexed": false,
          "internalType": "uint256",
          "name": "value",
          "type": "uint256"
        }
      ],
      "name": "Approval",
      "type": "event"
    },
    {
      "anonymous": false,
      "inputs": [
        {
          "indexed": true,
          "internalType": "address",
          "name": "from",
          "type": "address"
        },
        {
          "indexed": true,
          "internalType": "address",
          "name": "to",
          "type": "address"
        },
        {
          "indexed": false,
          "internalType": "uint256",
          "name": "value",
          "type": "uint256"
        }
      ],
      "name": "Transfer",
      "type": "event"
    },
    {
      "inputs": [
        {
          "internalType": "address",
          "name": "owner",
          "type": "address"
        },
        {
          "internalType": "address",
          "name": "spender",
          "type": "address"
        }
      ],
      "name": "allowance",
      "outputs": [
        {
          "internalType": "uint256",
          "name": "",
          "type": "uint256"
        }
      ],
      "stateMutability": "view",
      "type": "function"
    },
    {
      "inputs": [
        {
          "internalType": "address",
          "name": "spender",
          "type": "address"
        },
        {
          "internalType": "uint256",
          "name": "amount",
          "type": "uint256"
        }
      ],
      "name": "approve",
      "outputs": [
        {
          "internalType": "bool",
          "name": "",
          "type": "bool"
        }
      ],
      "stateMutability": "nonpayable",
      "type": "function"
    },
    {
      "inputs": [
        {
          "internalType": "address",
          "name": "account",
          "type": "address"
        }
      ],
      "name": "balanceOf",
      "outputs": [
        {
          "internalType": "uint256",
          "name": "",
          "type": "uint256"
        }
      ],
      "stateMutability": "view",
      "type": "function"
    },
    {
      "inputs": [
        {
          "internalType": "uint256",
          "name": "_amount",
          "type": "uint256"
        }
      ],
      "name": "buyTokens",
      "outputs": [],
      "stateMutability": "nonpayable",
      "type": "function"
    },
    {
      "inputs": [
        {
          "internalType": "uint256",
          "name": "",
          "type": "uint256"
        }
      ],
      "name": "candidates",
      "outputs": [
        {
          "internalType": "uint256",
          "name": "cid",
          "type": "uint256"
        },
        {
          "internalType": "string",
          "name": "name",
          "type": "string"
        },
        {
          "internalType": "uint256",
          "name": "Votes",
          "type": "uint256"
        },
        {
          "internalType": "address",
          "name": "caddress",
          "type": "address"
        },
        {
          "internalType": "uint256",
          "name": "eid",
          "type": "uint256"
        }
      ],
      "stateMutability": "view",
      "type": "function"
    },
    {
      "inputs": [
        {
          "internalType": "string",
          "name": "name",
          "type": "string"
        },
        {
          "internalType": "uint256",
          "name": "ele_id",
          "type": "uint256"
        }
      ],
      "name": "createCandidate",
      "outputs": [
        {
          "internalType": "uint256",
          "name": "",
          "type": "uint256"
        }
      ],
      "stateMutability": "nonpayable",
      "type": "function"
    },
    {
      "inputs": [
        {
          "internalType": "string",
          "name": "_name",
          "type": "string"
        },
        {
          "internalType": "string",
          "name": "_description",
          "type": "string"
        },
        {
          "internalType": "uint256",
          "name": "_votingWeakPeriod",
          "type": "uint256"
        }
      ],
      "name": "createElection",
      "outputs": [],
      "stateMutability": "nonpayable",
      "type": "function"
    },
    {
      "inputs": [
        {
          "internalType": "uint256",
          "name": "ele_id",
          "type": "uint256"
        }
      ],
      "name": "createVoter",
      "outputs": [],
      "stateMutability": "nonpayable",
      "type": "function"
    },
    {
      "inputs": [],
      "name": "decimals",
      "outputs": [
        {
          "internalType": "uint8",
          "name": "",
          "type": "uint8"
        }
      ],
      "stateMutability": "view",
      "type": "function"
    },
    {
      "inputs": [
        {
          "internalType": "address",
          "name": "spender",
          "type": "address"
        },
        {
          "internalType": "uint256",
          "name": "subtractedValue",
          "type": "uint256"
        }
      ],
      "name": "decreaseAllowance",
      "outputs": [
        {
          "internalType": "bool",
          "name": "",
          "type": "bool"
        }
      ],
      "stateMutability": "nonpayable",
      "type": "function"
    },
    {
      "inputs": [],
      "name": "displayTokens",
      "outputs": [
        {
          "internalType": "uint256",
          "name": "",
          "type": "uint256"
        }
      ],
      "stateMutability": "view",
      "type": "function"
    },
    {
      "inputs": [
        {
          "internalType": "uint256",
          "name": "",
          "type": "uint256"
        }
      ],
      "name": "elections",
      "outputs": [
        {
          "internalType": "uint256",
          "name": "id",
          "type": "uint256"
        },
        {
          "internalType": "string",
          "name": "name",
          "type": "string"
        },
        {
          "internalType": "string",
          "name": "description",
          "type": "string"
        },
        {
          "internalType": "uint256",
          "name": "votingPeriod",
          "type": "uint256"
        },
        {
          "internalType": "address",
          "name": "owner",
          "type": "address"
        },
        {
          "internalType": "uint256",
          "name": "completedOn",
          "type": "uint256"
        },
        {
          "internalType": "bool",
          "name": "isComplete",
          "type": "bool"
        },
        {
          "internalType": "bool",
          "name": "isExecuted",
          "type": "bool"
        }
      ],
      "stateMutability": "view",
      "type": "function"
    },
    {
      "inputs": [
        {
          "internalType": "uint256",
          "name": "ele_id",
          "type": "uint256"
        }
      ],
      "name": "getAllCandidatesElec",
      "outputs": [
        {
          "internalType": "uint256[]",
          "name": "",
          "type": "uint256[]"
        },
        {
          "internalType": "string[]",
          "name": "",
          "type": "string[]"
        },
        {
          "internalType": "uint256[]",
          "name": "",
          "type": "uint256[]"
        },
        {
          "internalType": "address[]",
          "name": "",
          "type": "address[]"
        },
        {
          "internalType": "uint256[]",
          "name": "",
          "type": "uint256[]"
        }
      ],
      "stateMutability": "view",
      "type": "function"
    },
    {
      "inputs": [],
      "name": "getAllElections",
      "outputs": [
        {
          "internalType": "uint256[]",
          "name": "",
          "type": "uint256[]"
        },
        {
          "internalType": "string[]",
          "name": "",
          "type": "string[]"
        },
        {
          "internalType": "string[]",
          "name": "",
          "type": "string[]"
        },
        {
          "internalType": "uint256[]",
          "name": "",
          "type": "uint256[]"
        },
        {
          "internalType": "address[]",
          "name": "",
          "type": "address[]"
        },
        {
          "internalType": "uint256[]",
          "name": "",
          "type": "uint256[]"
        },
        {
          "internalType": "bool[]",
          "name": "",
          "type": "bool[]"
        },
        {
          "internalType": "bool[]",
          "name": "",
          "type": "bool[]"
        }
      ],
      "stateMutability": "view",
      "type": "function"
    },
    {
      "inputs": [
        {
          "internalType": "uint256",
          "name": "ele_id",
          "type": "uint256"
        },
        {
          "internalType": "uint256",
          "name": "c_id",
          "type": "uint256"
        }
      ],
      "name": "getExecuted",
      "outputs": [
        {
          "internalType": "uint256",
          "name": "",
          "type": "uint256"
        }
      ],
      "stateMutability": "nonpayable",
      "type": "function"
    },
    {
      "inputs": [
        {
          "internalType": "address",
          "name": "spender",
          "type": "address"
        },
        {
          "internalType": "uint256",
          "name": "addedValue",
          "type": "uint256"
        }
      ],
      "name": "increaseAllowance",
      "outputs": [
        {
          "internalType": "bool",
          "name": "",
          "type": "bool"
        }
      ],
      "stateMutability": "nonpayable",
      "type": "function"
    },
    {
      "inputs": [],
      "name": "name",
      "outputs": [
        {
          "internalType": "string",
          "name": "",
          "type": "string"
        }
      ],
      "stateMutability": "view",
      "type": "function"
    },
    {
      "inputs": [],
      "name": "symbol",
      "outputs": [
        {
          "internalType": "string",
          "name": "",
          "type": "string"
        }
      ],
      "stateMutability": "view",
      "type": "function"
    },
    {
      "inputs": [],
      "name": "totalSupply",
      "outputs": [
        {
          "internalType": "uint256",
          "name": "",
          "type": "uint256"
        }
      ],
      "stateMutability": "view",
      "type": "function"
    },
    {
      "inputs": [
        {
          "internalType": "address",
          "name": "to",
          "type": "address"
        },
        {
          "internalType": "uint256",
          "name": "amount",
          "type": "uint256"
        }
      ],
      "name": "transfer",
      "outputs": [
        {
          "internalType": "bool",
          "name": "",
          "type": "bool"
        }
      ],
      "stateMutability": "nonpayable",
      "type": "function"
    },
    {
      "inputs": [
        {
          "internalType": "address",
          "name": "from",
          "type": "address"
        },
        {
          "internalType": "address",
          "name": "to",
          "type": "address"
        },
        {
          "internalType": "uint256",
          "name": "amount",
          "type": "uint256"
        }
      ],
      "name": "transferFrom",
      "outputs": [
        {
          "internalType": "bool",
          "name": "",
          "type": "bool"
        }
      ],
      "stateMutability": "nonpayable",
      "type": "function"
    },
    {
      "inputs": [
        {
          "internalType": "uint256",
          "name": "ele_id",
          "type": "uint256"
        },
        {
          "internalType": "uint256",
          "name": "c_id",
          "type": "uint256"
        }
      ],
      "name": "voteForCandidate",
      "outputs": [],
      "stateMutability": "nonpayable",
      "type": "function"
    },
    {
      "inputs": [
        {
          "internalType": "uint256",
          "name": "",
          "type": "uint256"
        }
      ],
      "name": "voters",
      "outputs": [
        {
          "internalType": "uint256",
          "name": "vid",
          "type": "uint256"
        },
        {
          "internalType": "address",
          "name": "VoterAddress",
          "type": "address"
        },
        {
          "internalType": "uint256",
          "name": "eid",
          "type": "uint256"
        },
        {
          "internalType": "uint256",
          "name": "freq",
          "type": "uint256"
        }
      ],
      "stateMutability": "view",
      "type": "function"
    }
  ],
  "bytecode": "0x60806040523480156200001157600080fd5b506040518060400160405280600b81526020017f566f74696e67546f6b656e0000000000000000000000000000000000000000008152506040518060400160405280600381526020017f56544b0000000000000000000000000000000000000000000000000000000000815250816003908051906020019062000096929190620002cc565b508060049080519060200190620000af929190620002cc565b50505033600560006101000a81548173ffffffffffffffffffffffffffffffffffffffff021916908373ffffffffffffffffffffffffffffffffffffffff1602179055506200013a336200010d6200014060201b620007291760201c565b600a6200011b9190620004d7565b6509184e72a0006200012e919062000614565b6200014960201b60201c565b6200072d565b60006012905090565b600073ffffffffffffffffffffffffffffffffffffffff168273ffffffffffffffffffffffffffffffffffffffff161415620001bc576040517f08c379a0000000000000000000000000000000000000000000000000000000008152600401620001b390620003cf565b60405180910390fd5b620001d060008383620002c260201b60201c565b8060026000828254620001e491906200041f565b92505081905550806000808473ffffffffffffffffffffffffffffffffffffffff1673ffffffffffffffffffffffffffffffffffffffff16815260200190815260200160002060008282546200023b91906200041f565b925050819055508173ffffffffffffffffffffffffffffffffffffffff16600073ffffffffffffffffffffffffffffffffffffffff167fddf252ad1be2c89b69c2b068fc378daa952ba7f163c4a11628f55a4df523b3ef83604051620002a29190620003f1565b60405180910390a3620002be60008383620002c760201b60201c565b5050565b505050565b505050565b828054620002da906200068c565b90600052602060002090601f016020900481019282620002fe57600085556200034a565b82601f106200031957805160ff19168380011785556200034a565b828001600101855582156200034a579182015b82811115620003495782518255916020019190600101906200032c565b5b5090506200035991906200035d565b5090565b5b80821115620003785760008160009055506001016200035e565b5090565b60006200038b601f836200040e565b91507f45524332303a206d696e7420746f20746865207a65726f2061646472657373006000830152602082019050919050565b620003c98162000675565b82525050565b60006020820190508181036000830152620003ea816200037c565b9050919050565b6000602082019050620004086000830184620003be565b92915050565b600082825260208201905092915050565b60006200042c8262000675565b9150620004398362000675565b9250827fffffffffffffffffffffffffffffffffffffffffffffffffffffffffffffffff03821115620004715762000470620006c2565b5b828201905092915050565b6000808291508390505b6001851115620004ce57808604811115620004a657620004a5620006c2565b5b6001851615620004b65780820291505b8081029050620004c68562000720565b945062000486565b94509492505050565b6000620004e48262000675565b9150620004f1836200067f565b9250620005207fffffffffffffffffffffffffffffffffffffffffffffffffffffffffffffffff848462000528565b905092915050565b6000826200053a57600190506200060d565b816200054a57600090506200060d565b81600181146200056357600281146200056e57620005a4565b60019150506200060d565b60ff841115620005835762000582620006c2565b5b8360020a9150848211156200059d576200059c620006c2565b5b506200060d565b5060208310610133831016604e8410600b8410161715620005de5782820a905083811115620005d857620005d7620006c2565b5b6200060d565b620005ed84848460016200047c565b92509050818404811115620006075762000606620006c2565b5b81810290505b9392505050565b6000620006218262000675565b91506200062e8362000675565b9250817fffffffffffffffffffffffffffffffffffffffffffffffffffffffffffffffff04831182151516156200066a5762000669620006c2565b5b828202905092915050565b6000819050919050565b600060ff82169050919050565b60006002820490506001821680620006a557607f821691505b60208210811415620006bc57620006bb620006f1565b5b50919050565b7f4e487b7100000000000000000000000000000000000000000000000000000000600052601160045260246000fd5b7f4e487b7100000000000000000000000000000000000000000000000000000000600052602260045260246000fd5b60008160011c9050919050565b613fe0806200073d6000396000f3fe608060405234801561001057600080fd5b506004361061014d5760003560e01c806370a08231116100c3578063a9059cbb1161007c578063a9059cbb146103ea578063bef9d28e1461041a578063ca7d09811461044a578063da58c7d914610468578063dd62ed3e1461049b578063eef55040146104cb5761014d565b806370a082311461030f5780637aa5ea311461033f5780637fd5f2681461035b578063911cbef91461038057806395d89b411461039c578063a457c2d7146103ba5761014d565b8063313ce56711610115578063313ce5671461021e5780633477ee2e1461023c5780633610724e14610270578063395093511461028c5780635e6fef01146102bc578063626b2c98146102f35761014d565b8063060cbc601461015257806306fdde0314610182578063095ea7b3146101a057806318160ddd146101d057806323b872dd146101ee575b600080fd5b61016c60048036038101906101679190612fe6565b6104ff565b6040516101799190613a15565b60405180910390f35b61018a61063b565b6040516101979190613853565b60405180910390f35b6101ba60048036038101906101b59190612eae565b6106cd565b6040516101c79190613838565b60405180910390f35b6101d86106f0565b6040516101e59190613a15565b60405180910390f35b61020860048036038101906102039190612e5f565b6106fa565b6040516102159190613838565b60405180910390f35b610226610729565b6040516102339190613b5b565b60405180910390f35b61025660048036038101906102519190612fbd565b610732565b604051610267959493929190613b01565b60405180910390f35b61028a60048036038101906102859190612fbd565b610810565b005b6102a660048036038101906102a19190612eae565b610860565b6040516102b39190613838565b60405180910390f35b6102d660048036038101906102d19190612fbd565b61090a565b6040516102ea989796959493929190613a75565b60405180910390f35b61030d60048036038101906103089190612fe6565b610a9c565b005b61032960048036038101906103249190612dfa565b610e4f565b6040516103369190613a15565b60405180910390f35b61035960048036038101906103549190612fbd565b610e97565b005b610363611036565b60405161037798979695949392919061370c565b60405180910390f35b61039a60048036038101906103959190612eea565b6119fe565b005b6103a4611b21565b6040516103b19190613853565b60405180910390f35b6103d460048036038101906103cf9190612eae565b611bb3565b6040516103e19190613838565b60405180910390f35b61040460048036038101906103ff9190612eae565b611c9d565b6040516104119190613838565b60405180910390f35b610434600480360381019061042f9190612f69565b611cc0565b6040516104419190613a15565b60405180910390f35b610452611ecd565b60405161045f9190613a15565b60405180910390f35b610482600480360381019061047d9190612fbd565b611ee2565b6040516104929493929190613a30565b60405180910390f35b6104b560048036038101906104b09190612e23565b611f32565b6040516104c29190613a15565b60405180910390f35b6104e560048036038101906104e09190612fbd565b611fb9565b6040516104f69594939291906137c2565b60405180910390f35b600042600a60008581526020019081526020016000206003015410610559576040517f08c379a0000000000000000000000000000000000000000000000000000000008152600401610550906139f5565b60405180910390fd5b6000600a6000858152602001908152602001600020600701805490506103e86105829190613d3e565b905061058e33826106cd565b506105d033600b600086815260200190815260200160002060030160009054906101000a900473ffffffffffffffffffffffffffffffffffffffff16836106fa565b506001600a600086815260200190815260200160002060060160006101000a81548160ff0219169083151502179055506001600a600086815260200190815260200160002060060160016101000a81548160ff02191690831515021790555060075491505092915050565b60606003805461064a90613e63565b80601f016020809104026020016040519081016040528092919081815260200182805461067690613e63565b80156106c35780601f10610698576101008083540402835291602001916106c3565b820191906000526020600020905b8154815290600101906020018083116106a657829003601f168201915b5050505050905090565b6000806106d8612520565b90506106e5818585612528565b600191505092915050565b6000600254905090565b600080610705612520565b90506107128582856126f3565b61071d85858561277f565b60019150509392505050565b60006012905090565b600b60205280600052604060002060009150905080600001549080600101805461075b90613e63565b80601f016020809104026020016040519081016040528092919081815260200182805461078790613e63565b80156107d45780601f106107a9576101008083540402835291602001916107d4565b820191906000526020600020905b8154815290600101906020018083116107b757829003601f168201915b5050505050908060020154908060030160009054906101000a900473ffffffffffffffffffffffffffffffffffffffff16908060040154905085565b60008111610853576040517f08c379a000000000000000000000000000000000000000000000000000000000815260040161084a906138d5565b60405180910390fd5b61085d3382612a00565b50565b60008061086b612520565b90506108ff818585600160008673ffffffffffffffffffffffffffffffffffffffff1673ffffffffffffffffffffffffffffffffffffffff16815260200190815260200160002060008973ffffffffffffffffffffffffffffffffffffffff1673ffffffffffffffffffffffffffffffffffffffff168152602001908152602001600020546108fa9190613ce8565b612528565b600191505092915050565b600a60205280600052604060002060009150905080600001549080600101805461093390613e63565b80601f016020809104026020016040519081016040528092919081815260200182805461095f90613e63565b80156109ac5780601f10610981576101008083540402835291602001916109ac565b820191906000526020600020905b81548152906001019060200180831161098f57829003601f168201915b5050505050908060020180546109c190613e63565b80601f01602080910402602001604051908101604052809291908181526020018280546109ed90613e63565b8015610a3a5780601f10610a0f57610100808354040283529160200191610a3a565b820191906000526020600020905b815481529060010190602001808311610a1d57829003601f168201915b5050505050908060030154908060040160009054906101000a900473ffffffffffffffffffffffffffffffffffffffff16908060050154908060060160009054906101000a900460ff16908060060160019054906101000a900460ff16905088565b42600a60008481526020019081526020016000206003015411610af4576040517f08c379a0000000000000000000000000000000000000000000000000000000008152600401610aeb906138f5565b60405180910390fd5b60008080600090505b600a600086815260200190815260200160002060080180549050811015610d2457600a60008681526020019081526020016000206008018181548110610b6c577f4e487b7100000000000000000000000000000000000000000000000000000000600052603260045260246000fd5b9060005260206000200160009054906101000a900473ffffffffffffffffffffffffffffffffffffffff1673ffffffffffffffffffffffffffffffffffffffff163373ffffffffffffffffffffffffffffffffffffffff161415610d1157600192506001600a60008781526020019081526020016000206009018281548110610c1e577f4e487b7100000000000000000000000000000000000000000000000000000000600052603260045260246000fd5b906000526020600020016000828254610c379190613ce8565b92505081905550600a60008681526020019081526020016000206009018181548110610c8c577f4e487b7100000000000000000000000000000000000000000000000000000000600052603260045260246000fd5b9060005260206000200154600a610ca39190613d3e565b9150610caf33836106cd565b50610cdd33600560009054906101000a900473ffffffffffffffffffffffffffffffffffffffff16846106fa565b506001600b60008681526020019081526020016000206002016000828254610d059190613ce8565b92505081905550610d24565b8080610d1c90613e95565b915050610afd565b5081610e4957610d3533600a6106cd565b50610d6433600560009054906101000a900473ffffffffffffffffffffffffffffffffffffffff16600a6106fa565b50600a6000858152602001908152602001600020600801339080600181540180825580915050600190039060005260206000200160009091909190916101000a81548173ffffffffffffffffffffffffffffffffffffffff021916908373ffffffffffffffffffffffffffffffffffffffff160217905550600a6000858152602001908152602001600020600901600190806001815401808255809150506001900390600052602060002001600090919091909150556001600b60008581526020019081526020016000206002016000828254610e419190613ce8565b925050819055505b50505050565b60008060008373ffffffffffffffffffffffffffffffffffffffff1673ffffffffffffffffffffffffffffffffffffffff168152602001908152602001600020549050919050565b42600a600060065481526020019081526020016000206003015411610ef1576040517f08c379a0000000000000000000000000000000000000000000000000000000008152600401610ee890613955565b60405180910390fd5b600160086000828254610f049190613ce8565b92505081905550600854600960006008548152602001908152602001600020600001819055503360096000600854815260200190815260200160002060010160006101000a81548173ffffffffffffffffffffffffffffffffffffffff021916908373ffffffffffffffffffffffffffffffffffffffff1602179055508060096000600854815260200190815260200160002060020181905550600160096000600854815260200190815260200160002060030181905550600a6000828152602001908152602001600020600801339080600181540180825580915050600190039060005260206000200160009091909190916101000a81548173ffffffffffffffffffffffffffffffffffffffff021916908373ffffffffffffffffffffffffffffffffffffffff16021790555050565b606080606080606080606080600060065467ffffffffffffffff811115611086577f4e487b7100000000000000000000000000000000000000000000000000000000600052604160045260246000fd5b6040519080825280602002602001820160405280156110b45781602001602082028036833780820191505090505b509050600060065467ffffffffffffffff8111156110fb577f4e487b7100000000000000000000000000000000000000000000000000000000600052604160045260246000fd5b60405190808252806020026020018201604052801561112e57816020015b60608152602001906001900390816111195790505b509050600060065467ffffffffffffffff811115611175577f4e487b7100000000000000000000000000000000000000000000000000000000600052604160045260246000fd5b6040519080825280602002602001820160405280156111a857816020015b60608152602001906001900390816111935790505b509050600060065467ffffffffffffffff8111156111ef577f4e487b7100000000000000000000000000000000000000000000000000000000600052604160045260246000fd5b60405190808252806020026020018201604052801561121d5781602001602082028036833780820191505090505b509050600060065467ffffffffffffffff811115611264577f4e487b7100000000000000000000000000000000000000000000000000000000600052604160045260246000fd5b6040519080825280602002602001820160405280156112925781602001602082028036833780820191505090505b509050600060065467ffffffffffffffff8111156112d9577f4e487b7100000000000000000000000000000000000000000000000000000000600052604160045260246000fd5b6040519080825280602002602001820160405280156113075781602001602082028036833780820191505090505b509050600060065467ffffffffffffffff81111561134e577f4e487b7100000000000000000000000000000000000000000000000000000000600052604160045260246000fd5b60405190808252806020026020018201604052801561137c5781602001602082028036833780820191505090505b509050600060065467ffffffffffffffff8111156113c3577f4e487b7100000000000000000000000000000000000000000000000000000000600052604160045260246000fd5b6040519080825280602002602001820160405280156113f15781602001602082028036833780820191505090505b5090506000600190505b60065481116119d357611423600a600083815260200190815260200160002060030154612b60565b61142c42612b60565b42600a60008381526020019081526020016000206003015410156114a85760018360018361145a9190613d98565b81518110611491577f4e487b7100000000000000000000000000000000000000000000000000000000600052603260045260246000fd5b602002602001019015159081151581525050611524565b600a600082815260200190815260200160002060060160009054906101000a900460ff16836001836114da9190613d98565b81518110611511577f4e487b7100000000000000000000000000000000000000000000000000000000600052603260045260246000fd5b6020026020010190151590811515815250505b600a600082815260200190815260200160002060000154896001836115499190613d98565b81518110611580577f4e487b7100000000000000000000000000000000000000000000000000000000600052603260045260246000fd5b602002602001018181525050600a600082815260200190815260200160002060010180546115ad90613e63565b80601f01602080910402602001604051908101604052809291908181526020018280546115d990613e63565b80156116265780601f106115fb57610100808354040283529160200191611626565b820191906000526020600020905b81548152906001019060200180831161160957829003601f168201915b5050505050886001836116399190613d98565b81518110611670577f4e487b7100000000000000000000000000000000000000000000000000000000600052603260045260246000fd5b6020026020010181905250600a6000828152602001908152602001600020600201805461169c90613e63565b80601f01602080910402602001604051908101604052809291908181526020018280546116c890613e63565b80156117155780601f106116ea57610100808354040283529160200191611715565b820191906000526020600020905b8154815290600101906020018083116116f857829003601f168201915b5050505050876001836117289190613d98565b8151811061175f577f4e487b7100000000000000000000000000000000000000000000000000000000600052603260045260246000fd5b6020026020010181905250600a6000828152602001908152602001600020600301548660018361178f9190613d98565b815181106117c6577f4e487b7100000000000000000000000000000000000000000000000000000000600052603260045260246000fd5b602002602001018181525050600a600082815260200190815260200160002060040160009054906101000a900473ffffffffffffffffffffffffffffffffffffffff16856001836118179190613d98565b8151811061184e577f4e487b7100000000000000000000000000000000000000000000000000000000600052603260045260246000fd5b602002602001019073ffffffffffffffffffffffffffffffffffffffff16908173ffffffffffffffffffffffffffffffffffffffff1681525050600a600082815260200190815260200160002060050154846001836118ad9190613d98565b815181106118e4577f4e487b7100000000000000000000000000000000000000000000000000000000600052603260045260246000fd5b602002602001018181525050600a600082815260200190815260200160002060060160019054906101000a900460ff16826001836119229190613d98565b81518110611959577f4e487b7100000000000000000000000000000000000000000000000000000000600052603260045260246000fd5b6020026020010190151590811515815250506119c08360018361197c9190613d98565b815181106119b3577f4e487b7100000000000000000000000000000000000000000000000000000000600052603260045260246000fd5b6020026020010151612bf9565b80806119cb90613e95565b9150506113fb565b5087878787878787879f509f509f509f509f509f509f509f5050505050505050509091929394959697565b600160066000828254611a119190613ce8565b92505081905550600654600a600060065481526020019081526020016000206000018190555082600a600060065481526020019081526020016000206001019080519060200190611a63929190612cc5565b5081600a600060065481526020019081526020016000206002019080519060200190611a90929190612cc5565b50603c81611a9e9190613d3e565b42611aa99190613ce8565b600a600060065481526020019081526020016000206003018190555033600a6000600654815260200190815260200160002060040160006101000a81548173ffffffffffffffffffffffffffffffffffffffff021916908373ffffffffffffffffffffffffffffffffffffffff160217905550505050565b606060048054611b3090613e63565b80601f0160208091040260200160405190810160405280929190818152602001828054611b5c90613e63565b8015611ba95780601f10611b7e57610100808354040283529160200191611ba9565b820191906000526020600020905b815481529060010190602001808311611b8c57829003601f168201915b5050505050905090565b600080611bbe612520565b90506000600160008373ffffffffffffffffffffffffffffffffffffffff1673ffffffffffffffffffffffffffffffffffffffff16815260200190815260200160002060008673ffffffffffffffffffffffffffffffffffffffff1673ffffffffffffffffffffffffffffffffffffffff16815260200190815260200160002054905083811015611c84576040517f08c379a0000000000000000000000000000000000000000000000000000000008152600401611c7b906139b5565b60405180910390fd5b611c918286868403612528565b60019250505092915050565b600080611ca8612520565b9050611cb581858561277f565b600191505092915050565b600042600a600060065481526020019081526020016000206003015411611d1c576040517f08c379a0000000000000000000000000000000000000000000000000000000008152600401611d1390613955565b60405180910390fd5b6107d0611d2833610e4f565b11611d68576040517f08c379a0000000000000000000000000000000000000000000000000000000008152600401611d5f906138b5565b60405180910390fd5b60006103e89050611d7933826106cd565b50611da733600560009054906101000a900473ffffffffffffffffffffffffffffffffffffffff16836106fa565b50600160076000828254611dbb9190613ce8565b92505081905550600754600b600060075481526020019081526020016000206000018190555083600b600060075481526020019081526020016000206001019080519060200190611e0d929190612cc5565b5082600b600060075481526020019081526020016000206004018190555033600b6000600754815260200190815260200160002060030160006101000a81548173ffffffffffffffffffffffffffffffffffffffff021916908373ffffffffffffffffffffffffffffffffffffffff160217905550600a6000848152602001908152602001600020600701600754908060018154018082558091505060019003906000526020600020016000909190919091505560075491505092915050565b600080611ed933610e4f565b90508091505090565b60096020528060005260406000206000915090508060000154908060010160009054906101000a900473ffffffffffffffffffffffffffffffffffffffff16908060020154908060030154905084565b6000600160008473ffffffffffffffffffffffffffffffffffffffff1673ffffffffffffffffffffffffffffffffffffffff16815260200190815260200160002060008373ffffffffffffffffffffffffffffffffffffffff1673ffffffffffffffffffffffffffffffffffffffff16815260200190815260200160002054905092915050565b6060806060806060600060075467ffffffffffffffff811115612005577f4e487b7100000000000000000000000000000000000000000000000000000000600052604160045260246000fd5b6040519080825280602002602001820160405280156120335781602001602082028036833780820191505090505b509050600060075467ffffffffffffffff81111561207a577f4e487b7100000000000000000000000000000000000000000000000000000000600052604160045260246000fd5b6040519080825280602002602001820160405280156120ad57816020015b60608152602001906001900390816120985790505b509050600060075467ffffffffffffffff8111156120f4577f4e487b7100000000000000000000000000000000000000000000000000000000600052604160045260246000fd5b6040519080825280602002602001820160405280156121225781602001602082028036833780820191505090505b509050600060075467ffffffffffffffff811115612169577f4e487b7100000000000000000000000000000000000000000000000000000000600052604160045260246000fd5b6040519080825280602002602001820160405280156121975781602001602082028036833780820191505090505b509050600060075467ffffffffffffffff8111156121de577f4e487b7100000000000000000000000000000000000000000000000000000000600052604160045260246000fd5b60405190808252806020026020018201604052801561220c5781602001602082028036833780820191505090505b509050600080600190505b6007548111612501578c600b60008381526020019081526020016000206004015414156124ee57600b60008281526020019081526020016000206000015487838151811061228e577f4e487b7100000000000000000000000000000000000000000000000000000000600052603260045260246000fd5b602002602001018181525050600b600082815260200190815260200160002060010180546122bb90613e63565b80601f01602080910402602001604051908101604052809291908181526020018280546122e790613e63565b80156123345780601f1061230957610100808354040283529160200191612334565b820191906000526020600020905b81548152906001019060200180831161231757829003601f168201915b5050505050868381518110612372577f4e487b7100000000000000000000000000000000000000000000000000000000600052603260045260246000fd5b6020026020010181905250600b6000828152602001908152602001600020600201548583815181106123cd577f4e487b7100000000000000000000000000000000000000000000000000000000600052603260045260246000fd5b602002602001018181525050600b600082815260200190815260200160002060030160009054906101000a900473ffffffffffffffffffffffffffffffffffffffff16848381518110612449577f4e487b7100000000000000000000000000000000000000000000000000000000600052603260045260246000fd5b602002602001019073ffffffffffffffffffffffffffffffffffffffff16908173ffffffffffffffffffffffffffffffffffffffff1681525050600b6000828152602001908152602001600020600401548383815181106124d3577f4e487b7100000000000000000000000000000000000000000000000000000000600052603260045260246000fd5b60200260200101818152505081806124ea90613e95565b9250505b80806124f990613e95565b915050612217565b5085858585859a509a509a509a509a5050505050505091939590929450565b600033905090565b600073ffffffffffffffffffffffffffffffffffffffff168373ffffffffffffffffffffffffffffffffffffffff161415612598576040517f08c379a000000000000000000000000000000000000000000000000000000000815260040161258f90613995565b60405180910390fd5b600073ffffffffffffffffffffffffffffffffffffffff168273ffffffffffffffffffffffffffffffffffffffff161415612608576040517f08c379a00000000000000000000000000000000000000000000000000000000081526004016125ff90613895565b60405180910390fd5b80600160008573ffffffffffffffffffffffffffffffffffffffff1673ffffffffffffffffffffffffffffffffffffffff16815260200190815260200160002060008473ffffffffffffffffffffffffffffffffffffffff1673ffffffffffffffffffffffffffffffffffffffff168152602001908152602001600020819055508173ffffffffffffffffffffffffffffffffffffffff168373ffffffffffffffffffffffffffffffffffffffff167f8c5be1e5ebec7d5bd14f71427d1e84f3dd0314c0f7b2291e5b200ac8c7c3b925836040516126e69190613a15565b60405180910390a3505050565b60006126ff8484611f32565b90507fffffffffffffffffffffffffffffffffffffffffffffffffffffffffffffffff8114612779578181101561276b576040517f08c379a000000000000000000000000000000000000000000000000000000000815260040161276290613915565b60405180910390fd5b6127788484848403612528565b5b50505050565b600073ffffffffffffffffffffffffffffffffffffffff168373ffffffffffffffffffffffffffffffffffffffff1614156127ef576040517f08c379a00000000000000000000000000000000000000000000000000000000081526004016127e690613975565b60405180910390fd5b600073ffffffffffffffffffffffffffffffffffffffff168273ffffffffffffffffffffffffffffffffffffffff16141561285f576040517f08c379a000000000000000000000000000000000000000000000000000000000815260040161285690613875565b60405180910390fd5b61286a838383612c92565b60008060008573ffffffffffffffffffffffffffffffffffffffff1673ffffffffffffffffffffffffffffffffffffffff168152602001908152602001600020549050818110156128f0576040517f08c379a00000000000000000000000000000000000000000000000000000000081526004016128e790613935565b60405180910390fd5b8181036000808673ffffffffffffffffffffffffffffffffffffffff1673ffffffffffffffffffffffffffffffffffffffff16815260200190815260200160002081905550816000808573ffffffffffffffffffffffffffffffffffffffff1673ffffffffffffffffffffffffffffffffffffffff16815260200190815260200160002060008282546129839190613ce8565b925050819055508273ffffffffffffffffffffffffffffffffffffffff168473ffffffffffffffffffffffffffffffffffffffff167fddf252ad1be2c89b69c2b068fc378daa952ba7f163c4a11628f55a4df523b3ef846040516129e79190613a15565b60405180910390a36129fa848484612c97565b50505050565b600073ffffffffffffffffffffffffffffffffffffffff168273ffffffffffffffffffffffffffffffffffffffff161415612a70576040517f08c379a0000000000000000000000000000000000000000000000000000000008152600401612a67906139d5565b60405180910390fd5b612a7c60008383612c92565b8060026000828254612a8e9190613ce8565b92505081905550806000808473ffffffffffffffffffffffffffffffffffffffff1673ffffffffffffffffffffffffffffffffffffffff1681526020019081526020016000206000828254612ae39190613ce8565b925050819055508173ffffffffffffffffffffffffffffffffffffffff16600073ffffffffffffffffffffffffffffffffffffffff167fddf252ad1be2c89b69c2b068fc378daa952ba7f163c4a11628f55a4df523b3ef83604051612b489190613a15565b60405180910390a3612b5c60008383612c97565b5050565b612bf681604051602401612b749190613a15565b6040516020818303038152906040527ff5b1bba9000000000000000000000000000000000000000000000000000000007bffffffffffffffffffffffffffffffffffffffffffffffffffffffff19166020820180517bffffffffffffffffffffffffffffffffffffffffffffffffffffffff8381831617835250505050612c9c565b50565b612c8f81604051602401612c0d9190613838565b6040516020818303038152906040527f32458eed000000000000000000000000000000000000000000000000000000007bffffffffffffffffffffffffffffffffffffffffffffffffffffffff19166020820180517bffffffffffffffffffffffffffffffffffffffffffffffffffffffff8381831617835250505050612c9c565b50565b505050565b505050565b60008151905060006a636f6e736f6c652e6c6f679050602083016000808483855afa5050505050565b828054612cd190613e63565b90600052602060002090601f016020900481019282612cf35760008555612d3a565b82601f10612d0c57805160ff1916838001178555612d3a565b82800160010185558215612d3a579182015b82811115612d39578251825591602001919060010190612d1e565b5b509050612d479190612d4b565b5090565b5b80821115612d64576000816000905550600101612d4c565b5090565b6000612d7b612d7684613ba7565b613b76565b905082815260208101848484011115612d9357600080fd5b612d9e848285613e21565b509392505050565b600081359050612db581613f7c565b92915050565b600082601f830112612dcc57600080fd5b8135612ddc848260208601612d68565b91505092915050565b600081359050612df481613f93565b92915050565b600060208284031215612e0c57600080fd5b6000612e1a84828501612da6565b91505092915050565b60008060408385031215612e3657600080fd5b6000612e4485828601612da6565b9250506020612e5585828601612da6565b9150509250929050565b600080600060608486031215612e7457600080fd5b6000612e8286828701612da6565b9350506020612e9386828701612da6565b9250506040612ea486828701612de5565b9150509250925092565b60008060408385031215612ec157600080fd5b6000612ecf85828601612da6565b9250506020612ee085828601612de5565b9150509250929050565b600080600060608486031215612eff57600080fd5b600084013567ffffffffffffffff811115612f1957600080fd5b612f2586828701612dbb565b935050602084013567ffffffffffffffff811115612f4257600080fd5b612f4e86828701612dbb565b9250506040612f5f86828701612de5565b9150509250925092565b60008060408385031215612f7c57600080fd5b600083013567ffffffffffffffff811115612f9657600080fd5b612fa285828601612dbb565b9250506020612fb385828601612de5565b9150509250929050565b600060208284031215612fcf57600080fd5b6000612fdd84828501612de5565b91505092915050565b60008060408385031215612ff957600080fd5b600061300785828601612de5565b925050602061301885828601612de5565b9150509250929050565b600061302e838361307e565b60208301905092915050565b6000613046838361322b565b60208301905092915050565b600061305e8383613249565b905092915050565b600061307283836136df565b60208301905092915050565b61308781613dcc565b82525050565b61309681613dcc565b82525050565b60006130a782613c17565b6130b18185613c82565b93506130bc83613bd7565b8060005b838110156130ed5781516130d48882613022565b97506130df83613c4e565b9250506001810190506130c0565b5085935050505092915050565b600061310582613c22565b61310f8185613c93565b935061311a83613be7565b8060005b8381101561314b578151613132888261303a565b975061313d83613c5b565b92505060018101905061311e565b5085935050505092915050565b600061316382613c2d565b61316d8185613ca4565b93508360208202850161317f85613bf7565b8060005b858110156131bb578484038952815161319c8582613052565b94506131a783613c68565b925060208a01995050600181019050613183565b50829750879550505050505092915050565b60006131d882613c38565b6131e28185613cb5565b93506131ed83613c07565b8060005b8381101561321e5781516132058882613066565b975061321083613c75565b9250506001810190506131f1565b5085935050505092915050565b61323481613dde565b82525050565b61324381613dde565b82525050565b600061325482613c43565b61325e8185613cc6565b935061326e818560208601613e30565b61327781613f6b565b840191505092915050565b600061328d82613c43565b6132978185613cd7565b93506132a7818560208601613e30565b6132b081613f6b565b840191505092915050565b60006132c8602383613cd7565b91507f45524332303a207472616e7366657220746f20746865207a65726f206164647260008301527f65737300000000000000000000000000000000000000000000000000000000006020830152604082019050919050565b600061332e602283613cd7565b91507f45524332303a20617070726f766520746f20746865207a65726f20616464726560008301527f73730000000000000000000000000000000000000000000000000000000000006020830152604082019050919050565b6000613394601183613cd7565b91507f4c65737320546f6b656e20416d6f756e740000000000000000000000000000006000830152602082019050919050565b60006133d4602083613cd7565b91507f416d6f756e74206d7573742062652067726561746572207468616e207a65726f6000830152602082019050919050565b6000613414601383613cd7565b91507f566f74696e6720706572696f6420656e646564000000000000000000000000006000830152602082019050919050565b6000613454601d83613cd7565b91507f45524332303a20696e73756666696369656e7420616c6c6f77616e63650000006000830152602082019050919050565b6000613494602683613cd7565b91507f45524332303a207472616e7366657220616d6f756e742065786365656473206260008301527f616c616e636500000000000000000000000000000000000000000000000000006020830152604082019050919050565b60006134fa601583613cd7565b91507f456c656374696f6e20706572696f6420656e64656400000000000000000000006000830152602082019050919050565b600061353a602583613cd7565b91507f45524332303a207472616e736665722066726f6d20746865207a65726f20616460008301527f64726573730000000000000000000000000000000000000000000000000000006020830152604082019050919050565b60006135a0602483613cd7565b91507f45524332303a20617070726f76652066726f6d20746865207a65726f2061646460008301527f72657373000000000000000000000000000000000000000000000000000000006020830152604082019050919050565b6000613606602583613cd7565b91507f45524332303a2064656372656173656420616c6c6f77616e63652062656c6f7760008301527f207a65726f0000000000000000000000000000000000000000000000000000006020830152604082019050919050565b600061366c601f83613cd7565b91507f45524332303a206d696e7420746f20746865207a65726f2061646472657373006000830152602082019050919050565b60006136ac601683613cd7565b91507f6c657420766f74696e672020706572696f6420656e64000000000000000000006000830152602082019050919050565b6136e881613e0a565b82525050565b6136f781613e0a565b82525050565b61370681613e14565b82525050565b6000610100820190508181036000830152613727818b6131cd565b9050818103602083015261373b818a613158565b9050818103604083015261374f8189613158565b9050818103606083015261376381886131cd565b90508181036080830152613777818761309c565b905081810360a083015261378b81866131cd565b905081810360c083015261379f81856130fa565b905081810360e08301526137b381846130fa565b90509998505050505050505050565b600060a08201905081810360008301526137dc81886131cd565b905081810360208301526137f08187613158565b9050818103604083015261380481866131cd565b90508181036060830152613818818561309c565b9050818103608083015261382c81846131cd565b90509695505050505050565b600060208201905061384d600083018461323a565b92915050565b6000602082019050818103600083015261386d8184613282565b905092915050565b6000602082019050818103600083015261388e816132bb565b9050919050565b600060208201905081810360008301526138ae81613321565b9050919050565b600060208201905081810360008301526138ce81613387565b9050919050565b600060208201905081810360008301526138ee816133c7565b9050919050565b6000602082019050818103600083015261390e81613407565b9050919050565b6000602082019050818103600083015261392e81613447565b9050919050565b6000602082019050818103600083015261394e81613487565b9050919050565b6000602082019050818103600083015261396e816134ed565b9050919050565b6000602082019050818103600083015261398e8161352d565b9050919050565b600060208201905081810360008301526139ae81613593565b9050919050565b600060208201905081810360008301526139ce816135f9565b9050919050565b600060208201905081810360008301526139ee8161365f565b9050919050565b60006020820190508181036000830152613a0e8161369f565b9050919050565b6000602082019050613a2a60008301846136ee565b92915050565b6000608082019050613a4560008301876136ee565b613a52602083018661308d565b613a5f60408301856136ee565b613a6c60608301846136ee565b95945050505050565b600061010082019050613a8b600083018b6136ee565b8181036020830152613a9d818a613282565b90508181036040830152613ab18189613282565b9050613ac060608301886136ee565b613acd608083018761308d565b613ada60a08301866136ee565b613ae760c083018561323a565b613af460e083018461323a565b9998505050505050505050565b600060a082019050613b1660008301886136ee565b8181036020830152613b288187613282565b9050613b3760408301866136ee565b613b44606083018561308d565b613b5160808301846136ee565b9695505050505050565b6000602082019050613b7060008301846136fd565b92915050565b6000604051905081810181811067ffffffffffffffff82111715613b9d57613b9c613f3c565b5b8060405250919050565b600067ffffffffffffffff821115613bc257613bc1613f3c565b5b601f19601f8301169050602081019050919050565b6000819050602082019050919050565b6000819050602082019050919050565b6000819050602082019050919050565b6000819050602082019050919050565b600081519050919050565b600081519050919050565b600081519050919050565b600081519050919050565b600081519050919050565b6000602082019050919050565b6000602082019050919050565b6000602082019050919050565b6000602082019050919050565b600082825260208201905092915050565b600082825260208201905092915050565b600082825260208201905092915050565b600082825260208201905092915050565b600082825260208201905092915050565b600082825260208201905092915050565b6000613cf382613e0a565b9150613cfe83613e0a565b9250827fffffffffffffffffffffffffffffffffffffffffffffffffffffffffffffffff03821115613d3357613d32613ede565b5b828201905092915050565b6000613d4982613e0a565b9150613d5483613e0a565b9250817fffffffffffffffffffffffffffffffffffffffffffffffffffffffffffffffff0483118215151615613d8d57613d8c613ede565b5b828202905092915050565b6000613da382613e0a565b9150613dae83613e0a565b925082821015613dc157613dc0613ede565b5b828203905092915050565b6000613dd782613dea565b9050919050565b60008115159050919050565b600073ffffffffffffffffffffffffffffffffffffffff82169050919050565b6000819050919050565b600060ff82169050919050565b82818337600083830152505050565b60005b83811015613e4e578082015181840152602081019050613e33565b83811115613e5d576000848401525b50505050565b60006002820490506001821680613e7b57607f821691505b60208210811415613e8f57613e8e613f0d565b5b50919050565b6000613ea082613e0a565b91507fffffffffffffffffffffffffffffffffffffffffffffffffffffffffffffffff821415613ed357613ed2613ede565b5b600182019050919050565b7f4e487b7100000000000000000000000000000000000000000000000000000000600052601160045260246000fd5b7f4e487b7100000000000000000000000000000000000000000000000000000000600052602260045260246000fd5b7f4e487b7100000000000000000000000000000000000000000000000000000000600052604160045260246000fd5b6000601f19601f8301169050919050565b613f8581613dcc565b8114613f9057600080fd5b50565b613f9c81613e0a565b8114613fa757600080fd5b5056fea2646970667358221220975532e13182445c0493609d428e3230d2c7ca6f2a5ea3f01305e20915c1fb1e64736f6c63430008000033",
  "linkReferences": {},
  "deployedLinkReferences": {}
}